{
  "contractName": "FundMe",
  "abi": [
    {
      "inputs": [],
      "stateMutability": "nonpayable",
      "type": "constructor"
    },
    {
      "inputs": [
        {
          "internalType": "address",
          "name": "",
          "type": "address"
        }
      ],
      "name": "addressToAmountFunded",
      "outputs": [
        {
          "internalType": "uint256",
          "name": "",
          "type": "uint256"
        }
      ],
      "stateMutability": "view",
      "type": "function"
    },
    {
      "inputs": [
        {
          "internalType": "uint256",
          "name": "",
          "type": "uint256"
        }
      ],
      "name": "funders",
      "outputs": [
        {
          "internalType": "address",
          "name": "",
          "type": "address"
        }
      ],
      "stateMutability": "view",
      "type": "function"
    },
    {
      "inputs": [],
      "name": "owner",
      "outputs": [
        {
          "internalType": "address",
          "name": "",
          "type": "address"
        }
      ],
      "stateMutability": "view",
      "type": "function"
    },
    {
      "inputs": [],
      "name": "fund",
      "outputs": [],
      "stateMutability": "payable",
      "type": "function"
    },
    {
      "inputs": [],
      "name": "getVersion",
      "outputs": [
        {
          "internalType": "uint256",
          "name": "",
          "type": "uint256"
        }
      ],
      "stateMutability": "view",
      "type": "function"
    },
    {
      "inputs": [],
      "name": "getPrice",
      "outputs": [
        {
          "internalType": "uint256",
          "name": "",
          "type": "uint256"
        }
      ],
      "stateMutability": "view",
      "type": "function"
    },
    {
      "inputs": [
        {
          "internalType": "uint256",
          "name": "ethAmount",
          "type": "uint256"
        }
      ],
      "name": "getConversionRate",
      "outputs": [
        {
          "internalType": "uint256",
          "name": "",
          "type": "uint256"
        }
      ],
      "stateMutability": "view",
      "type": "function"
    },
    {
      "inputs": [],
      "name": "withdraw",
      "outputs": [],
      "stateMutability": "payable",
      "type": "function"
    }
  ],
  "bytecode": "0x608060405234801561001057600080fd5b5033600260006101000a81548173ffffffffffffffffffffffffffffffffffffffff021916908373ffffffffffffffffffffffffffffffffffffffff160217905550610990806100616000396000f3fe60806040526004361061007b5760003560e01c80638da5cb5b1161004e5780638da5cb5b1461012f57806398d5fdca1461015a578063b60d428814610185578063dc0d3dff1461018f5761007b565b80630d8e6e2c146100805780633ccfd60b146100ab5780633e47d6f3146100b55780636e5b6b28146100f2575b600080fd5b34801561008c57600080fd5b506100956101cc565b6040516100a291906105c9565b60405180910390f35b6100b36101d1565b005b3480156100c157600080fd5b506100dc60048036038101906100d79190610647565b610339565b6040516100e991906105c9565b60405180910390f35b3480156100fe57600080fd5b50610119600480360381019061011491906106a0565b610351565b60405161012691906105c9565b60405180910390f35b34801561013b57600080fd5b5061014461038b565b60405161015191906106dc565b60405180910390f35b34801561016657600080fd5b5061016f6103b1565b60405161017c91906105c9565b60405180910390f35b61018d6103b6565b005b34801561019b57600080fd5b506101b660048036038101906101b191906106a0565b6104ca565b6040516101c391906106dc565b60405180910390f35b600090565b600260009054906101000a900473ffffffffffffffffffffffffffffffffffffffff1673ffffffffffffffffffffffffffffffffffffffff163373ffffffffffffffffffffffffffffffffffffffff161461022b57600080fd5b60005b6001805490508110156102d657600060018281548110610251576102506106f7565b5b9060005260206000200160009054906101000a900473ffffffffffffffffffffffffffffffffffffffff16905060008060008373ffffffffffffffffffffffffffffffffffffffff1673ffffffffffffffffffffffffffffffffffffffff168152602001908152602001600020819055505080806102ce90610755565b91505061022e565b50600067ffffffffffffffff8111156102f2576102f161079e565b5b6040519080825280602002602001820160405280156103205781602001602082028036833780820191505090505b5060019080519060200190610336929190610509565b50565b60006020528060005260406000206000915090505481565b60008061035c6103b1565b90506000670de0b6b3a7640000848361037591906107cd565b61037f9190610856565b90508092505050919050565b600260009054906101000a900473ffffffffffffffffffffffffffffffffffffffff1681565b600090565b60006802b5e3af16b18800009050806103ce34610351565b101561040f576040517f08c379a0000000000000000000000000000000000000000000000000000000008152600401610406906108e4565b60405180910390fd5b346000803373ffffffffffffffffffffffffffffffffffffffff1673ffffffffffffffffffffffffffffffffffffffff168152602001908152602001600020600082825461045d9190610904565b925050819055506001339080600181540180825580915050600190039060005260206000200160009091909190916101000a81548173ffffffffffffffffffffffffffffffffffffffff021916908373ffffffffffffffffffffffffffffffffffffffff16021790555050565b600181815481106104da57600080fd5b906000526020600020016000915054906101000a900473ffffffffffffffffffffffffffffffffffffffff1681565b828054828255906000526020600020908101928215610582579160200282015b828111156105815782518260006101000a81548173ffffffffffffffffffffffffffffffffffffffff021916908373ffffffffffffffffffffffffffffffffffffffff16021790555091602001919060010190610529565b5b50905061058f9190610593565b5090565b5b808211156105ac576000816000905550600101610594565b5090565b6000819050919050565b6105c3816105b0565b82525050565b60006020820190506105de60008301846105ba565b92915050565b600080fd5b600073ffffffffffffffffffffffffffffffffffffffff82169050919050565b6000610614826105e9565b9050919050565b61062481610609565b811461062f57600080fd5b50565b6000813590506106418161061b565b92915050565b60006020828403121561065d5761065c6105e4565b5b600061066b84828501610632565b91505092915050565b61067d816105b0565b811461068857600080fd5b50565b60008135905061069a81610674565b92915050565b6000602082840312156106b6576106b56105e4565b5b60006106c48482850161068b565b91505092915050565b6106d681610609565b82525050565b60006020820190506106f160008301846106cd565b92915050565b7f4e487b7100000000000000000000000000000000000000000000000000000000600052603260045260246000fd5b7f4e487b7100000000000000000000000000000000000000000000000000000000600052601160045260246000fd5b6000610760826105b0565b91507fffffffffffffffffffffffffffffffffffffffffffffffffffffffffffffffff82141561079357610792610726565b5b600182019050919050565b7f4e487b7100000000000000000000000000000000000000000000000000000000600052604160045260246000fd5b60006107d8826105b0565b91506107e3836105b0565b9250817fffffffffffffffffffffffffffffffffffffffffffffffffffffffffffffffff048311821515161561081c5761081b610726565b5b828202905092915050565b7f4e487b7100000000000000000000000000000000000000000000000000000000600052601260045260246000fd5b6000610861826105b0565b915061086c836105b0565b92508261087c5761087b610827565b5b828204905092915050565b600082825260208201905092915050565b7f596f75206e65656420746f207370656e64206d6f726520455448210000000000600082015250565b60006108ce601b83610887565b91506108d982610898565b602082019050919050565b600060208201905081810360008301526108fd816108c1565b9050919050565b600061090f826105b0565b915061091a836105b0565b9250827fffffffffffffffffffffffffffffffffffffffffffffffffffffffffffffffff0382111561094f5761094e610726565b5b82820190509291505056fea2646970667358221220e6de5a93f91850d41967eeb9f521bc0706eaede29b6295c32156bcf843030c5c64736f6c634300080c0033",
  "immutableReferences": {},
  "source": "// SPDX-License-Identifier: MIT\n\n// Smart contract that lets anyone deposit ETH into the contract\n// Only the owner of the contract can withdraw the ETH\npragma solidity >=0.6.6 <0.9.0;\n\n// Get the latest ETH/USD price from chainlink price feed\n// NOTE this only compiles in a real network\n//import \"@chainlink/contracts/src/v0.6/interfaces/AggregatorV3Interface.sol\";\n//import \"@chainlink/contracts/src/v0.6/vendor/SafeMathChainlink.sol\";\n\ncontract FundMe {\n\t// safe math library check uint256 for integer overflows\n    //using SafeMathChainlink for uint256;\n\n    //mapping to store which address depositeded how much ETH\n    mapping(address => uint256) public addressToAmountFunded;\n    // array of addresses who deposited\n    address[] public funders;\n    //address of the owner (who deployed the contract)\n    address public owner;\n\n    // the first person to deploy the contract is\n    // the owner\n    constructor() public {\n        owner = msg.sender;\n    }\n\n    function fund() public payable {\n    \t// 18 digit number to be compared with donated amount\n        uint256 minimumUSD = 50 * 10 ** 18;\n        //is the donated amount less than 50USD?\n        require(getConversionRate(msg.value) >= minimumUSD, \"You need to spend more ETH!\");\n        //if not, add to mapping and funders array\n        addressToAmountFunded[msg.sender] += msg.value;\n        funders.push(msg.sender);\n    }\n\n    //function to get the version of the chainlink pricefeed\n    function getVersion() public view returns (uint256){\n        //AggregatorV3Interface priceFeed = AggregatorV3Interface(0x8A753747A1Fa494EC906cE90E9f37563A8AF630e);\n        //return priceFeed.version();\n    }\n\n    function getPrice() public view returns(uint256){\n        //AggregatorV3Interface priceFeed = AggregatorV3Interface(0x8A753747A1Fa494EC906cE90E9f37563A8AF630e);\n        //(,int256 answer,,,) = priceFeed.latestRoundData();\n         // ETH/USD rate in 18 digit\n         //return uint256(answer * 10000000000);\n    }\n\n    // 1000000000\n    function getConversionRate(uint256 ethAmount) public view returns (uint256){\n        uint256 ethPrice = getPrice();\n        uint256 ethAmountInUsd = (ethPrice * ethAmount) / 1000000000000000000;\n        // the actual ETH/USD conversation rate, after adjusting the extra 0s.\n        return ethAmountInUsd;\n    }\n\n    //modifier: https://medium.com/coinmonks/solidity-tutorial-all-about-modifiers-a86cf81c14cb\n    modifier onlyOwner {\n    \t//is the message sender owner of the contract?\n        require(msg.sender == owner);\n\n        _;\n    }\n\n    // onlyOwner modifer will first check the condition inside it\n    // and\n    // if true, withdraw function will be executed\n    function withdraw() payable onlyOwner public {\n\n    \t// If you are using version eight (v0.8) of chainlink aggregator interface,\n      // you will need to change the code below to\n      // payable(msg.sender).transfer(address(this).balance);\n        //msg.sender.transfer(address(this).balance);\n\n\n        //iterate through all the mappings and make them 0\n        //since all the deposited amount has been withdrawn\n        for (uint256 funderIndex=0; funderIndex < funders.length; funderIndex++){\n            address funder = funders[funderIndex];\n            addressToAmountFunded[funder] = 0;\n        }\n        //funders array will be initialized to 0\n        funders = new address[](0);\n    }\n}\n\n",
  "sourcePath": "/home/app/contracts/FundMe.sol",
  "compiler": {
    "name": "solc",
    "version": "0.8.12+commit.f00d7308.Emscripten.clang"
  },
  "schemaVersion": "3.4.7",
  "updatedAt": "2022-05-02T16:44:52.390Z",
  "devdoc": {
    "kind": "dev",
    "methods": {},
    "version": 1
  },
  "userdoc": {
    "kind": "user",
    "methods": {},
    "version": 1
  }
}