{
  "contractName": "StorageFactory",
  "abi": [
    {
      "inputs": [
        {
          "internalType": "string",
          "name": "_name",
          "type": "string"
        },
        {
          "internalType": "uint256",
          "name": "_favoriteNumber",
          "type": "uint256"
        }
      ],
      "name": "addPerson",
      "outputs": [],
      "stateMutability": "nonpayable",
      "type": "function"
    },
    {
      "inputs": [
        {
          "internalType": "string",
          "name": "",
          "type": "string"
        }
      ],
      "name": "nameToFavoriteNumber",
      "outputs": [
        {
          "internalType": "uint256",
          "name": "",
          "type": "uint256"
        }
      ],
      "stateMutability": "view",
      "type": "function",
      "constant": true
    },
    {
      "inputs": [
        {
          "internalType": "uint256",
          "name": "",
          "type": "uint256"
        }
      ],
      "name": "people",
      "outputs": [
        {
          "internalType": "uint256",
          "name": "favoriteNumber",
          "type": "uint256"
        },
        {
          "internalType": "string",
          "name": "name",
          "type": "string"
        }
      ],
      "stateMutability": "view",
      "type": "function",
      "constant": true
    },
    {
      "inputs": [],
      "name": "retrieve",
      "outputs": [
        {
          "internalType": "uint256",
          "name": "",
          "type": "uint256"
        }
      ],
      "stateMutability": "view",
      "type": "function",
      "constant": true
    },
    {
      "inputs": [
        {
          "internalType": "uint256",
          "name": "",
          "type": "uint256"
        }
      ],
      "name": "simpleStorageArray",
      "outputs": [
        {
          "internalType": "contract SimpleStorage",
          "name": "",
          "type": "address"
        }
      ],
      "stateMutability": "view",
      "type": "function",
      "constant": true
    },
    {
      "inputs": [
        {
          "internalType": "uint256",
          "name": "_favoriteNumber",
          "type": "uint256"
        }
      ],
      "name": "store",
      "outputs": [],
      "stateMutability": "nonpayable",
      "type": "function"
    },
    {
      "inputs": [],
      "name": "createSimpleStorageContract",
      "outputs": [],
      "stateMutability": "nonpayable",
      "type": "function"
    },
    {
      "inputs": [
        {
          "internalType": "uint256",
          "name": "_simpleStorageIndex",
          "type": "uint256"
        },
        {
          "internalType": "uint256",
          "name": "_simpleStorageNumber",
          "type": "uint256"
        }
      ],
      "name": "sfStore",
      "outputs": [],
      "stateMutability": "nonpayable",
      "type": "function"
    },
    {
      "inputs": [
        {
          "internalType": "uint256",
          "name": "_simpleStorageIndex",
          "type": "uint256"
        }
      ],
      "name": "sfGet",
      "outputs": [
        {
          "internalType": "uint256",
          "name": "",
          "type": "uint256"
        }
      ],
      "stateMutability": "view",
      "type": "function",
      "constant": true
    }
  ],
  "bytecode": "0x608060405234801561001057600080fd5b50611351806100206000396000f3fe608060405234801561001057600080fd5b50600436106100935760003560e01c806364591bf11161006657806364591bf1146100f85780636f760f41146101285780638bab8dd5146101445780639e7a13ad14610174578063c5f19c20146101a557610093565b80631563700f146100985780631dda6541146100b45780632e64cec1146100be5780636057361d146100dc575b600080fd5b6100b260048036038101906100ad9190610691565b6101d5565b005b6100bc610282565b005b6100c6610315565b6040516100d391906106e0565b60405180910390f35b6100f660048036038101906100f191906106fb565b61031e565b005b610112600480360381019061010d91906106fb565b610328565b60405161011f91906107a7565b60405180910390f35b610142600480360381019061013d9190610908565b610367565b005b61015e60048036038101906101599190610964565b6103f7565b60405161016b91906106e0565b60405180910390f35b61018e600480360381019061018991906106fb565b610425565b60405161019c929190610a35565b60405180910390f35b6101bf60048036038101906101ba91906106fb565b6104e1565b6040516101cc91906106e0565b60405180910390f35b600382815481106101e9576101e8610a65565b5b9060005260206000200160009054906101000a900473ffffffffffffffffffffffffffffffffffffffff1673ffffffffffffffffffffffffffffffffffffffff16636057361d826040518263ffffffff1660e01b815260040161024c91906106e0565b600060405180830381600087803b15801561026657600080fd5b505af115801561027a573d6000803e3d6000fd5b505050505050565b600060405161029090610597565b604051809103906000f0801580156102ac573d6000803e3d6000fd5b5090506003819080600181540180825580915050600190039060005260206000200160009091909190916101000a81548173ffffffffffffffffffffffffffffffffffffffff021916908373ffffffffffffffffffffffffffffffffffffffff16021790555050565b60008054905090565b8060008190555050565b6003818154811061033857600080fd5b906000526020600020016000915054906101000a900473ffffffffffffffffffffffffffffffffffffffff1681565b600160405180604001604052808381526020018481525090806001815401808255809150506001900390600052602060002090600202016000909190919091506000820151816000015560208201518160010190805190602001906103cd9291906105a4565b505050806002836040516103e19190610ad0565b9081526020016040518091039020819055505050565b6002818051602081018201805184825260208301602085012081835280955050505050506000915090505481565b6001818154811061043557600080fd5b906000526020600020906002020160009150905080600001549080600101805461045e90610b16565b80601f016020809104026020016040519081016040528092919081815260200182805461048a90610b16565b80156104d75780601f106104ac576101008083540402835291602001916104d7565b820191906000526020600020905b8154815290600101906020018083116104ba57829003601f168201915b5050505050905082565b6000600382815481106104f7576104f6610a65565b5b9060005260206000200160009054906101000a900473ffffffffffffffffffffffffffffffffffffffff1673ffffffffffffffffffffffffffffffffffffffff16632e64cec16040518163ffffffff1660e01b8152600401602060405180830381865afa15801561056c573d6000803e3d6000fd5b505050506040513d601f19601f820116820180604052508101906105909190610b5d565b9050919050565b61079180610b8b83390190565b8280546105b090610b16565b90600052602060002090601f0160209004810192826105d25760008555610619565b82601f106105eb57805160ff1916838001178555610619565b82800160010185558215610619579182015b828111156106185782518255916020019190600101906105fd565b5b509050610626919061062a565b5090565b5b8082111561064357600081600090555060010161062b565b5090565b6000604051905090565b600080fd5b600080fd5b6000819050919050565b61066e8161065b565b811461067957600080fd5b50565b60008135905061068b81610665565b92915050565b600080604083850312156106a8576106a7610651565b5b60006106b68582860161067c565b92505060206106c78582860161067c565b9150509250929050565b6106da8161065b565b82525050565b60006020820190506106f560008301846106d1565b92915050565b60006020828403121561071157610710610651565b5b600061071f8482850161067c565b91505092915050565b600073ffffffffffffffffffffffffffffffffffffffff82169050919050565b6000819050919050565b600061076d61076861076384610728565b610748565b610728565b9050919050565b600061077f82610752565b9050919050565b600061079182610774565b9050919050565b6107a181610786565b82525050565b60006020820190506107bc6000830184610798565b92915050565b600080fd5b600080fd5b6000601f19601f8301169050919050565b7f4e487b7100000000000000000000000000000000000000000000000000000000600052604160045260246000fd5b610815826107cc565b810181811067ffffffffffffffff82111715610834576108336107dd565b5b80604052505050565b6000610847610647565b9050610853828261080c565b919050565b600067ffffffffffffffff821115610873576108726107dd565b5b61087c826107cc565b9050602081019050919050565b82818337600083830152505050565b60006108ab6108a684610858565b61083d565b9050828152602081018484840111156108c7576108c66107c7565b5b6108d2848285610889565b509392505050565b600082601f8301126108ef576108ee6107c2565b5b81356108ff848260208601610898565b91505092915050565b6000806040838503121561091f5761091e610651565b5b600083013567ffffffffffffffff81111561093d5761093c610656565b5b610949858286016108da565b925050602061095a8582860161067c565b9150509250929050565b60006020828403121561097a57610979610651565b5b600082013567ffffffffffffffff81111561099857610997610656565b5b6109a4848285016108da565b91505092915050565b600081519050919050565b600082825260208201905092915050565b60005b838110156109e75780820151818401526020810190506109cc565b838111156109f6576000848401525b50505050565b6000610a07826109ad565b610a1181856109b8565b9350610a218185602086016109c9565b610a2a816107cc565b840191505092915050565b6000604082019050610a4a60008301856106d1565b8181036020830152610a5c81846109fc565b90509392505050565b7f4e487b7100000000000000000000000000000000000000000000000000000000600052603260045260246000fd5b600081905092915050565b6000610aaa826109ad565b610ab48185610a94565b9350610ac48185602086016109c9565b80840191505092915050565b6000610adc8284610a9f565b915081905092915050565b7f4e487b7100000000000000000000000000000000000000000000000000000000600052602260045260246000fd5b60006002820490506001821680610b2e57607f821691505b60208210811415610b4257610b41610ae7565b5b50919050565b600081519050610b5781610665565b92915050565b600060208284031215610b7357610b72610651565b5b6000610b8184828501610b48565b9150509291505056fe608060405234801561001057600080fd5b50610771806100206000396000f3fe608060405234801561001057600080fd5b50600436106100575760003560e01c80632e64cec11461005c5780636057361d1461007a5780636f760f41146100965780638bab8dd5146100b25780639e7a13ad146100e2575b600080fd5b610064610113565b604051610071919061035c565b60405180910390f35b610094600480360381019061008f91906103b7565b61011c565b005b6100b060048036038101906100ab919061052a565b610126565b005b6100cc60048036038101906100c79190610586565b6101b6565b6040516100d9919061035c565b60405180910390f35b6100fc60048036038101906100f791906103b7565b6101e4565b60405161010a929190610657565b60405180910390f35b60008054905090565b8060008190555050565b6001604051806040016040528083815260200184815250908060018154018082558091505060019003906000526020600020906002020160009091909190915060008201518160000155602082015181600101908051906020019061018c9291906102a0565b505050806002836040516101a091906106c3565b9081526020016040518091039020819055505050565b6002818051602081018201805184825260208301602085012081835280955050505050506000915090505481565b600181815481106101f457600080fd5b906000526020600020906002020160009150905080600001549080600101805461021d90610709565b80601f016020809104026020016040519081016040528092919081815260200182805461024990610709565b80156102965780601f1061026b57610100808354040283529160200191610296565b820191906000526020600020905b81548152906001019060200180831161027957829003601f168201915b5050505050905082565b8280546102ac90610709565b90600052602060002090601f0160209004810192826102ce5760008555610315565b82601f106102e757805160ff1916838001178555610315565b82800160010185558215610315579182015b828111156103145782518255916020019190600101906102f9565b5b5090506103229190610326565b5090565b5b8082111561033f576000816000905550600101610327565b5090565b6000819050919050565b61035681610343565b82525050565b6000602082019050610371600083018461034d565b92915050565b6000604051905090565b600080fd5b600080fd5b61039481610343565b811461039f57600080fd5b50565b6000813590506103b18161038b565b92915050565b6000602082840312156103cd576103cc610381565b5b60006103db848285016103a2565b91505092915050565b600080fd5b600080fd5b6000601f19601f8301169050919050565b7f4e487b7100000000000000000000000000000000000000000000000000000000600052604160045260246000fd5b610437826103ee565b810181811067ffffffffffffffff82111715610456576104556103ff565b5b80604052505050565b6000610469610377565b9050610475828261042e565b919050565b600067ffffffffffffffff821115610495576104946103ff565b5b61049e826103ee565b9050602081019050919050565b82818337600083830152505050565b60006104cd6104c88461047a565b61045f565b9050828152602081018484840111156104e9576104e86103e9565b5b6104f48482856104ab565b509392505050565b600082601f830112610511576105106103e4565b5b81356105218482602086016104ba565b91505092915050565b6000806040838503121561054157610540610381565b5b600083013567ffffffffffffffff81111561055f5761055e610386565b5b61056b858286016104fc565b925050602061057c858286016103a2565b9150509250929050565b60006020828403121561059c5761059b610381565b5b600082013567ffffffffffffffff8111156105ba576105b9610386565b5b6105c6848285016104fc565b91505092915050565b600081519050919050565b600082825260208201905092915050565b60005b838110156106095780820151818401526020810190506105ee565b83811115610618576000848401525b50505050565b6000610629826105cf565b61063381856105da565b93506106438185602086016105eb565b61064c816103ee565b840191505092915050565b600060408201905061066c600083018561034d565b818103602083015261067e818461061e565b90509392505050565b600081905092915050565b600061069d826105cf565b6106a78185610687565b93506106b78185602086016105eb565b80840191505092915050565b60006106cf8284610692565b915081905092915050565b7f4e487b7100000000000000000000000000000000000000000000000000000000600052602260045260246000fd5b6000600282049050600182168061072157607f821691505b60208210811415610735576107346106da565b5b5091905056fea264697066735822122017289f885f4d5a1d7f1d470dce8367372baa251043b380d86b388eba1ba6603764736f6c634300080c0033a2646970667358221220add54f19aa66edc5344603381c2e15c049aff170dd01d729409577145d5c121364736f6c634300080c0033",
  "immutableReferences": {},
  "source": "// SPDX-License-Identifier: MIT\n\npragma solidity >=0.6.0 <0.9.0;\n\nimport \"./SimpleStorage.sol\";\n\ncontract StorageFactory is SimpleStorage {\n\n    SimpleStorage[] public simpleStorageArray;\n\n    function createSimpleStorageContract() public {\n        SimpleStorage simpleStorage = new SimpleStorage();\n        simpleStorageArray.push(simpleStorage);\n    }\n\n    function sfStore(uint256 _simpleStorageIndex, uint256 _simpleStorageNumber) public {\n        // Address\n        // ABI\n        //this line has an explicit cast to the address type and initializes a new SimpleStorage object from the address\n        SimpleStorage(address(simpleStorageArray[_simpleStorageIndex])).store(_simpleStorageNumber);\n\n        //this line simply gets the SimpleStorage object at the index _simpleStorageIndex in the array simpleStorageArray\n        //simpleStorageArray[_simpleStorageIndex].store(_simpleStorageNumber);\n    }\n\n    function sfGet(uint256 _simpleStorageIndex) public view returns (uint256) {\n        //this line has an explicit cast to the address type and initializes a new SimpleStorage object from the address\n        return SimpleStorage(address(simpleStorageArray[_simpleStorageIndex])).retrieve();\n\n        //this line simply gets the SimpleStorage object at the index _simpleStorageIndex in the array simpleStorageArray\n        //return simpleStorageArray[_simpleStorageIndex].retrieve();\n    }\n}\n",
  "sourcePath": "/home/app/contracts/StorageFactory.sol",
  "compiler": {
    "name": "solc",
    "version": "0.8.12+commit.f00d7308.Emscripten.clang"
  },
  "schemaVersion": "3.4.7",
  "updatedAt": "2022-04-27T12:52:10.569Z",
  "networkType": "ethereum",
  "devdoc": {
    "kind": "dev",
    "methods": {},
    "version": 1
  },
  "userdoc": {
    "kind": "user",
    "methods": {},
    "version": 1
  }
}